S012000054696E795F57696E63682E7372656316
S11300000EC01DC01DC01BC01AC019C018C017C027
S11300103DC015C030C013C012C011C010C011249F
S11300201FBECFE5D1E0DEBFCDBF20E0A0E6B0E04B
S113003001C01D92A536B207E1F789D02EC1E0CFE9
S11300401F920F920FB60F9211248F93B09B06C08C
S11300501FBC85E080BF1092600007C010BE8FB542
S11300608E3510F08B9A01C08B988F910F900FBE34
S11300700F901F9018951F920F920FB60F92112494
S1130080899A0F900FBE0F901F9018951F920F9290
S11300900FB60F9211248F939F9384B195B18D382D
S11300A0910518F0C19A8A9A01C0C1989F918F91C5
S11300B00F900FBE0F901F9018958A98C39A87EAE5
S11300C091E60197F1F700C0000086B1806C86B913
S11300D008958A98C49A87EA91E60197F1F700C0D7
S11300E0000086B1806C86B9089588B3877E88BB8A
S11300F086B18F7386B908958AE187BB18BA81E007
S113010085BB80E88CBD87E289BD82E08ABD85E03D
S113011083BF80E189BF10BE80E28BBF85B7877E35
S113012085BF81E887B984E084BB8EE286B913B8C1
S1130130C1988BE091E09093620080936100D5DFD9
S113014011BA109264001092600078940895D4DF7C
S11301500BE011E0CCE2D1E0899B22C08998809128
S11301606400883030F4809164008F5F8093640071
S113017001C08C9A809160008C3068F0B6DF8B9B54
S113018005C0D0936200C09361000AC0109362005E
S11301900093610005C0809160008F5F80936000D0
S11301A0E0916100F0916200099585B7806285BF96
S11301B0889585B78F7D85BFCFCF8B9908C095DF94
S11301C08BE091E0909362008093610008958A9B94
S11301D008C08BDF8A988CE291E090936200809350
S11301E0610008958B9B08C080DF8CE291E09093BE
S11301F062008093610008958A9B08C076DF8A9824
S11302008BE091E0909362008093610008951092D6
S113021064008C9808958B9B08C067DF86E191E0A9
S11302209093620080936100F2DF08958B9909C076
S11302305CDFEDDF87E391E09093620080936100DF
S113024008958C9B08C08C9838DF8DED90E09093D6
S113025062008093610008958B9908C046DFD7DF60
S113026087E391E0909362008093610008958B9BF3
S113027009C03BDFCCDF86E191E09093620080937C
S1130280610008958C9B08C08C9823DF82EF90E076
S111029090936200809361000895F894FFCF6C
S9030000FC
